S024000061726475465047415F73696D706C655F74656D706C6174655F6170702E73726563F2
S11300000C9456000C9468000C9468000C946800DE
S11300100C9468000C9468000C9468000C946800BC
S11300200C9468000C9468000C9468000C946800AC
S11300300C9468000C9468000C9468000C9468009C
S11300400C9468000C9468000C9468000C9468008C
S11300500C9468000C9468000C9468000C94BB0029
S11300600C9468000C9468000C9468000C9468006C
S11300700C9468000C9468000C9468000C9468005C
S11300800C9468000C9468000C9468000C9468004C
S11300900C9468000C9468000C9468000C9468003C
S11300A00C9468000C9468000C94680011241FBE22
S11300B0CFEFDAE0DEBFCDBF21E0A0E0B1E001C0C8
S11300C01D92A430B207E1F70E9486000C94E00070
S11300D00C940000F8948091000190910101A0918A
S11300E00201B091030188519C4FAF4FBF4F7894E8
S11300F0409100015091010160910201709103014E
S113010084179507A607B70798F7089587E084B979
S1130110789484E085B90E946A0081E085B90E94E0
S11301206A0082E085B90E946A0015B880E0D1E0D7
S113013014E002E0C3B1C095CF718C17D9F3C2307B
S1130140B1F020F4C13089F08C2FF4CFC43089F0A1
S1130150C830D1F715B90E946A0005B90E946A0037
S1130160D5B90E946A0015B8EFCF15B9EDCFC5B95E
S1130170EBCFD5B9E9CF1F920F920FB60F9211248E
S11301808F939F93AF93BF9380910001909101014E
S1130190A0910201B09103010196A11DB11D8093AC
S11301A0000190930101A0930201B0930301BF9158
S11301B0AF919F918F910F900FBE0F901F90189544
S10701C0F894FFCFDD
S9030000FC
